:100000000C9434000C943E000C943E000C943E0082
:100010000C943E000C943E000C943E000C943E0068
:100020000C943E000C943E000C943E000C943E0058
:100030000C943E000C943E000C943E000C943E0048
:100040000C943E000C943E000C943E000C943E0038
:100050000C943E000C943E000C943E000C943E0028
:100060000C943E000C943E0011241FBECFEFD8E04C
:10007000DEBFCDBF0E9465000C94C6000C9400004A
:10008000229A8FE39CE9909387008093860082E216
:10009000809380008AE1809381000895282F30E0CA
:1000A000ACE6B7E00E94B70024EB30E040E050E05F
:1000B0000E949500DA01C9018C509E4FAF4FBF4F8F
:1000C00090938B0080938A0008950E94400044EF33
:1000D00051E02AEA35E080E699E050938B004093A6
:1000E0008A006FEF79E6E8E161507040E040E1F7A7
:1000F00000C0000030938B0020938A006FEF79E6F8
:10010000E8E161507040E040E1F700C000009093EA
:100110008B0080938A006FEF79E6E8E161507040D0
:10012000E040E1F700C00000D8CFA1E21A2EAA1BE0
:10013000BB1BFD010DC0AA1FBB1FEE1FFF1FA21797
:10014000B307E407F50720F0A21BB30BE40BF50B94
:10015000661F771F881F991F1A9469F7609570951D
:10016000809590959B01AC01BD01CF010895A29FA0
:10017000B001B39FC001A39F700D811D1124911D7B
:10018000B29F700D811D1124911D0895F894FFCF29
:00000001FF
