:100000000C9434000C9449000C9449000C94490061
:100010000C9449000C9449000C9449000C9449003C
:100020000C9449000C9449000C9449000C944B002A
:100030000C9456000C9449000C9449000C9449000F
:100040000C9449000C9449000C9449000C9449000C
:100050000C9449000C9449000C9449000C944900FC
:100060000C9449000C94490011241FBECFEFD8E036
:10007000DEBFCDBF11E0A0E0B1E0E4E1F2E002C0FC
:1000800005900D92A230B107D9F70E94A7000C94F9
:1000900008010C9400001F920F920FB60F921124CA
:1000A0002B9A0F900FBE0F901F9018951F920F92D2
:1000B0000FB60F9211242B980F900FBE0F901F9028
:1000C000189584B18C6084B980E29EE49093870097
:1000D0008093860082E2809380008AE18093810091
:1000E00088EE93E090938B0080938A0081E090E00B
:1000F000909389008093880086E080936F007894C5
:100100000895282F30E0ACE6B7E00E94F90024EB18
:1001100030E040E050E00E94D7002C503E4F30933A
:100120008B0020938A000895282F30E0ACE6B7E0DA
:100130000E94F90024EB30E040E050E00E94D7003C
:100140002C503E4F309301012093000108950E94EE
:10015000610044EF51E02AEA35E080E699E05093EF
:100160008B0040938A006FEF79E6E8E161507040C0
:10017000E040E1F700C0000030938B0020938A003C
:100180006FEF79E6E8E161507040E040E1F700C0D0
:10019000000090938B0080938A006FEF79E6E8E18E
:1001A00061507040E040E1F700C00000D8CFA1E20C
:1001B0001A2EAA1BBB1BFD010DC0AA1FBB1FEE1FE1
:1001C000FF1FA217B307E407F50720F0A21BB30B2C
:1001D000E40BF50B661F771F881F991F1A9469F7A8
:1001E00060957095809590959B01AC01BD01CF0104
:1001F0000895A29FB001B39FC001A39F700D811D00
:100200001124911DB29F700D811D1124911D08951F
:04021000F894FFCF90
:02021400E803FD
:00000001FF
