:100000000C9434000C9449000C9449000C94490061
:100010000C9449000C9449000C9449000C9449003C
:100020000C9449000C9449000C9449000C9449002C
:100030000C9449000C9449000C9449000C9449001C
:100040000C9449000C9449000C9449000C9449000C
:100050000C9449000C9449000C9449000C944900FC
:100060000C9449000C94490011241FBECFEFD8E036
:10007000DEBFCDBF11E0A0E0B1E0EEE9F8E002C0E4
:1000800005900D92A832B107D9F70E9414010C9483
:100090004D040C9400009093C5008093C40088E147
:1000A0008093C10086E08093C20008959091C000C3
:1000B00095FFFCCF8093C6000895CF93DF93EC01AA
:1000C0008991882319F00E945600FACFDF91CF91D1
:1000D00008958091C00087FFFCCF8091C6000895ED
:1000E00098B1907F8F70892B88B95D9A82E08A954C
:1000F000F1F700C05D9887EC90E00197F1F700C040
:1001000000000895CF93C82F662311F05C9A01C0B8
:100110005C988C2F82958F700E9470008C2F8F704E
:10012000CF910C94700087B18F6087B98AB18063DA
:100130008AB98FE39CE90197F1F700C0000083E0E2
:100140000E9470008FE097E20197F1F700C0000075
:1001500083E00E94700087EC90E00197F1F700C007
:10016000000083E00E94700082E00E94700060E066
:1001700088E20E94820060E08CE00E94820060E0E1
:1001800086E00E94820060E081E00E9482008FE9A8
:100190009FE00197F1F700C00000089560E081E062
:1001A0000E9482008FE99FE00197F1F700C00000F4
:1001B0000895962F882311F080EC01C080E860E05C
:1001C000890F0C948200CF93DF93EC0189918823EF
:1001D00021F061E00E948200F9CFDF91CF91089574
:1001E000CF93DF93CDB7DEB760970FB6F894DEBF3D
:1001F0000FBECDBF9E012B5E3F4FF9014191519142
:100200009F0160E170E0CE0101960E945901CE018C
:1002100001960E94E30060960FB6F894DEBF0FBE11
:10022000CDBFDF91CF9108950E9493000E94CE0030
:1002300060E080E00E94D90080E091E00E94E3004D
:1002400083E390E00E944B002FEF89E698E1215074
:1002500080409040E1F700C000008FE091E00E94F4
:100260005D002FEF89E698E1215080409040E1F752
:1002700000C00000C0E0D0E08091C00087FF07C050
:10028000CF30D10521F021960E946900F5CF0E9460
:10029000CE0060E080E00E94D900CD2B29F084E1FF
:1002A00091E00E94E30004C08BE191E00E94E30032
:1002B000FFCFAEE0B0E0EFE5F1E00C9424048C0158
:1002C000FA0186E08C831A83098377FF02C060E01D
:1002D00070E8CB0101979E838D83A901BF01CE01F8
:1002E00001960E9485014D815E8157FD0AC02F81D4
:1002F0003885421753070CF49A01F801E20FF31FF7
:1003000010822E96E4E00C944004ABE0B0E0EBE801
:10031000F1E00C9416046C017B018A01FC01178248
:100320001682838181FFCCC1CE0101963C01F6018A
:100330009381F70193FD859193FF81917F0188233C
:1003400009F4BAC1853239F493FD859193FF819107
:100350007F01853229F4B60190E00E947C03E7CF4B
:10036000912C212C312CFFE1F315D8F08B3279F050
:1003700038F4803279F08332A1F4232D20611DC03E
:100380008D3261F0803369F4232D216016C0832DF6
:100390008260382EE32DE4603E2E2AC0F32DF860F3
:1003A0001DC037FC2DC020ED280F2A3040F08E32C2
:1003B000B9F436FC81C1232D2064322E19C036FEDB
:1003C00006C08AE0989E200D1124922E11C0EAE00A
:1003D0002E9E200D1124222EF32DF0623F2E08C0F8
:1003E0008C3621F4832D8068382E02C0883641F483
:1003F000F70193FD859193FF81917F018111B3CF27
:10040000982F9F7D9554933028F40C5F1F4F9FE3E6
:1004100099830DC0833631F0833771F0833509F04D
:1004200059C021C0F801808189830E5F1F4F882445
:100430008394912C530113C02801F2E04F0E511CFC
:10044000F801A080B18036FE03C0692D70E002C0C3
:100450006FEF7FEFC5010E9471034C018201F32D04
:10046000FF773F2E16C0280122E0420E511CF801F2
:10047000A080B18036FE03C0692D70E002C06FEF2E
:100480007FEFC5010E9466034C01F32DF0683F2EFB
:10049000820133FC1BC0822D90E088169906B0F4CF
:1004A000B60180E290E00E947C032A94F4CFF5012B
:1004B00037FC859137FE81915F01B60190E00E9483
:1004C0007C0321102A9421E0821A9108811491045E
:1004D00071F7E8C0843611F0893641F5F80137FE2E
:1004E00007C060817181828193810C5F1F4F08C0BA
:1004F00060817181072E000C880B990B0E5F1F4FD6
:10050000F32DFF763F2E97FF09C09095809570954B
:1005100061957F4F8F4F9F4FF0683F2E2AE030E06C
:10052000A3010E94B803882E861845C0853731F490
:10053000232D2F7EB22E2AE030E025C0932D997F07
:10054000B92E8F36C1F018F4883579F0B5C08037F0
:1005500019F0883721F0B0C0E92FE061BE2EB4FE5B
:100560000DC0FB2DF460BF2E09C034FE0AC0292F38
:100570002660B22E06C028E030E005C020E130E061
:1005800002C020E132E0F801B7FE07C0608171814E
:10059000828193810C5F1F4F06C06081718180E072
:1005A00090E00E5F1F4FA3010E94B803882E8618AB
:1005B000FB2DFF773F2E36FE0DC0232D2E7FA22E62
:1005C000891458F434FE0BC032FC09C0832D8E7E92
:1005D000A82E05C0B82CA32C03C0B82C01C0B92C80
:1005E000A4FE0FC0FE01E80DF11D8081803321F4CF
:1005F0009A2D997EA92E09C0A2FE06C0B394B39489
:1006000004C08A2D867809F0B394A3FC11C0A0FE23
:1006100006C0B21488F4280C922C9B180EC0B21499
:1006200060F4B60180E290E00E947C03B394F7CFBF
:10063000B21418F42B1802C0982C212CA4FE10C060
:10064000B60180E390E00E947C03A2FE17C0A1FCEB
:1006500003C088E790E002C088E590E0B6010CC0D6
:100660008A2D867859F0A1FE02C08BE201C080E29B
:10067000A7FC8DE2B60190E00E947C03891438F457
:10068000B60180E390E00E947C039A94F7CF8A94AD
:10069000F301E80DF11D8081B60190E00E947C031A
:1006A0008110F5CF222009F442CEB60180E290E01D
:1006B0000E947C032A94F6CFF6018681978102C0BE
:1006C0008FEF9FEF2B96E2E10C943204FC01059032
:1006D000615070400110D8F7809590958E0F9F1F44
:1006E0000895FC016150704001900110D8F7809589
:1006F00090958E0F9F1F08950F931F93CF93DF93B5
:10070000FB01238121FD03C08FEF9FEF2CC022FF4F
:1007100016C046815781248135814217530744F41E
:10072000A081B1819D012F5F3F4F318320838C9346
:10073000268137812F5F3F4F3783268314C08B017B
:10074000EC01FB010084F185E02D0995892BE1F690
:10075000D80116968D919C911797019617969C93A8
:100760008E931697CE01DF91CF911F910F9108952F
:10077000FA01AA27283051F1203181F1E8946F93D2
:100780006E7F6E5F7F4F8F4F9F4FAF4FB1E03ED078
:10079000B4E03CD0670F781F891F9A1FA11D680F16
:1007A000791F8A1F911DA11D6A0F711D811D911D49
:1007B000A11D20D009F468943F912AE0269F1124BE
:1007C0003019305D3193DEF6CF010895462F477022
:1007D000405D4193B3E00FD0C9F7F6CF462F4F707D
:1007E000405D4A3318F0495D31FD4052419302D0DB
:1007F000A9F7EACFB4E0A695979587957795679581
:10080000BA95C9F700976105710508959B01AC0180
:100810000A2E06945795479537952795BA95C9F7A7
:10082000620F731F841F951FA01D08952F923F9282
:100830004F925F926F927F928F929F92AF92BF92F0
:10084000CF92DF92EF92FF920F931F93CF93DF939C
:10085000CDB7DEB7CA1BDB0B0FB6F894DEBF0FBEF9
:10086000CDBF09942A88398848885F846E847D8446
:100870008C849B84AA84B984C884DF80EE80FD8048
:100880000C811B81AA81B981CE0FD11D0FB6F894BE
:0E089000DEBF0FBECDBFED010895F894FFCF7F
:10089E0047534D2054657374205374617274004134
:1008AE00540D0A0047534D204F4B004E6F2052659A
:0808BE0073706F6E736500009A
:00000001FF
