:100000000C9434000C9449000C9449000C94490061
:100010000C9449000C9449000C9449000C9449003C
:100020000C9449000C9449000C9449000C9449002C
:100030000C9449000C9449000C9449000C9449001C
:100040000C9449000C9449000C9449000C9449000C
:100050000C9449000C9449000C9449000C944900FC
:100060000C9449000C94490011241FBECFEFD8E036
:10007000DEBFCDBF11E0A0E0B1E0E6ECF1E002C0F0
:1000800005900D92AA34B107D9F70E9471000C9423
:10009000E1000C9400001092C50083E38093C4003B
:1000A00088E18093C10086E08093C200089590911A
:1000B000C00095FFFCCF8093C6000895CF93DF93D7
:1000C000EC018991882319F00E945700FACFDF9143
:1000D000CF9108958091C00087FFFCCF8091C6002A
:1000E00008950E944B002FEF33ED80E32150304004
:1000F0008040E1F700C00000259A80E091E00E9476
:100100005E009FEF23ED30E3915020403040E1F757
:1001100000C000008091C00087FF03C00E946A00F9
:10012000F9CF85E091E00E945E008FEF93ED20E330
:10013000815090402040E1F700C000008091C00055
:1001400087FF03C00E946A00F9CF81E191E00E941D
:100150005E003FEF83ED90E3315080409040E1F747
:1001600000C000008091C00087FFFCCF0E946A00A1
:100170008E33C1F78AE291E00E945E002FEF31EEEC
:1001800084E0215030408040E1F700C000008AE167
:100190000E9457009FEF23ED30E391502040304004
:1001A000E1F700C0000090E285B1892785B98FEFA3
:1001B00024E33CE0815020403040E1F700C00000E3
:0601C000F3CFF894FFCF1D
:1001C60041540D0A0041542B434D47463D310D0A1B
:1001D6000041542B434D47533D222B39343731349C
:1001E600363336373238220D0A0048656C6C6F2C70
:1001F60020746869732069732061207465737420A4
:0A0206006D657373616765210000E8
:00000001FF
