:100000000C9434000C9451000C9451000C94510049
:100010000C9451000C9451000C9451000C9451001C
:100020000C9451000C9451000C9451000C9451000C
:100030000C9451000C9451000C9451000C945100FC
:100040000C9451000C9451000C9451000C945100EC
:100050000C9451000C9451000C9451000C945100DC
:100060000C9451000C94510011241FBECFEFD8E026
:10007000DEBFCDBF11E0A0E0B1E0E4E1FCE002C0F2
:1000800005900D92A637B107D9F721E0A6E7B1E0B8
:1000900001C01D92AA37B207E1F70E949F020C949B
:1000A00008060C94000008958FEF9FEF089598B113
:1000B000907F8F70892B88B95D9A82E08A95F1F7DD
:1000C00000C05D9887EC90E00197F1F700C0000058
:1000D0000895CF93C82F662311F05C9A01C05C98F5
:1000E0008C2F82958F700E9457008C2F8F70CF912C
:1000F0000C94570087B18F6087B98AB180638AB941
:100100008FE39CE90197F1F700C0000083E00E94B3
:1001100057008FE097E20197F1F700C0000083E0FD
:100120000E94570087EC90E00197F1F700C00000B3
:1001300083E00E94570082E00E94570060E088E25E
:100140000E94690060E08CE00E94690060E086E047
:100150000E94690060E081E00E9469008FE99FE0F1
:100160000197F1F700C00000089560E081E00E946F
:1001700069008FE99FE00197F1F700C00000089542
:10018000962F882311F080EC01C080E860E0890F91
:100190000C946900CF93DF93EC018991882321F0BF
:1001A00061E00E946900F9CFDF91CF910895CF936C
:1001B000DF93CDB7DEB760970FB6F894DEBF0FBE02
:1001C000CDBF9E012B5E3F4FF901419151919F019F
:1001D00060E170E0CE0101960E941403CE01019609
:1001E0000E94CA0060960FB6F894DEBF0FBECDBF66
:1001F000DF91CF910895CF93DF93209178013091D3
:100200007901232BC1F0EC018991E0917801F09103
:100210007901882311F00995F7CF8AE009952FEF2E
:1002200081EE94E0215080409040E1F700C0000052
:1002300081E090E002C080E090E0DF91CF910895EE
:100240008091760190917701892B39F0E0917601C8
:10025000F091770109950196C9F70895EF92FF9201
:100260000F931F93CF93DF93209176013091770105
:10027000232B69F17B018C01C0E0D0E021E0E21A80
:10028000F108E0917601F091770109958F3F2FEF0A
:10029000920749F08D30910519F08A30910571F47B
:1002A0001C161D0674F7F801EC0FFD1F108281E08B
:1002B00090E01C161D066CF080E00BC0CE15DF052B
:1002C00004F7F801EC0FFD1F80832196DACF80E060
:1002D00090E0DF91CF911F910F91FF90EF900895E3
:1002E000CF92DF92EF92FF920F931F93CF93DF9302
:1002F000CDB7DEB7C054D1090FB6F894DEBF0FBE3C
:10030000CDBF6B017A010E94FB0000E010E00E15EA
:100310001F0520F560E470E0CE0101960E942E01D9
:10032000892B61F42FE788E391E0215080409040D1
:10033000E1F700C000000E5C1F4FE9CF0E94B5003E
:10034000CE0101960E94CA00B601CE0101960E941C
:10035000CA02892B39F381E090E008C00E94B50001
:100360008BE291E00E94CA0080E090E0C05CDF4F29
:100370000FB6F894DEBF0FBECDBFDF91CF911F91B6
:100380000F91FF90EF90DF90CF90089540ED57E0F0
:100390006FE471E083E391E00C9470019093790134
:1003A0008093780170937701609376010E94B50085
:1003B0008DE391E00E94CA002FEF84E39CE021507E
:1003C00080409040E1F700C0000040ED57E06FE44E
:1003D00071E089E491E00E947001892B19F08CE4AE
:1003E00091E002C082E591E00E94CA002FEF89E609
:1003F00098E1215080409040E1F700C0000040EDBE
:1004000057E06FE471E08AE591E00E9470010C947E
:10041000C601EF92FF920F931F93CF93DF93CDB757
:10042000DEB7C056D1090FB6F894DEBF0FBECDBF00
:10043000F62EE72E9F938F938FE591E09F938F93F6
:100440001F9280E28F938E010F5B1F4F1F930F93BC
:100450000E94E402C8010E94FB000FB6F894DEBFC0
:100460000FBECDBF04E610E060E470E0CE0101965F
:100470000E942E01892B89F00E94B500CE010196C1
:100480000E94CA006EE370E0CE0101960E94BF0296
:10049000892B19F00F2D1E2D0DC09FE7E8E3F1E029
:1004A0009150E040F040E1F700C000000150110918
:1004B000D9F6F0CFF80181918F01E0917801F091A8
:1004C0007901882311F00995F5CF8AE10995FFEFAD
:1004D00021E18AE7F15020408040E1F700C00000B0
:1004E00060E470E0CE0101960E942E01892B49F450
:1004F0000E94B5008CE691E00E94CA0080E090E086
:1005000010C00E94B500CE0101960E94CA006FE49F
:1005100071E0CE0101960E94CA02892B49F381E065
:1005200090E0C05ADF4F0FB6F894DEBF0FBECDBFCC
:10053000DF91CF911F910F91FF90EF9008950E944E
:100540007A000E94B50080E091E00E94CA002FEF7F
:1005500089E698E1215080409040E1F700C000001A
:1005600064E570E083E590E00E94CE0141E050E058
:100570006EE071E08EE191E00E940902FFCFFC0184
:100580008191861721F08823D9F79927089531970B
:10059000CF010895FB0151915523A9F0BF01DC0162
:1005A0004D9145174111E1F759F4CD01019000201B
:1005B00049F04D9140154111C9F3FB014111EFCFB5
:1005C00081E090E001970895AEE0B0E0EAEEF2E05D
:1005D0000C94DF050D891E898F89988D26E02C8368
:1005E0001A83098397FF02C080E090E801979E83F9
:1005F0008D83AE01455E5F4F698D7A8DCE01019688
:100600000E9440034D815E8157FD0AC02F813885CD
:10061000421753070CF49A01F801E20FF31F1082FE
:100620002E96E4E00C94FB05AEE0B0E0EAE1F3E0E6
:100630000C94DF058C01FA0186E08C831A83098310
:1006400077FF02C060E070E8CB0101979E838D8345
:10065000A901BF01CE0101960E9440034D815E8138
:1006600057FD0AC02F813885421753070CF49A01B1
:10067000F801E20FF31F10822E96E4E00C94FB05C4
:10068000ABE0B0E0E6E4F3E00C94D1056C017B0153
:100690008A01FC0117821682838181FFCCC1CE01C1
:1006A00001963C01F6019381F70193FD859193FF3B
:1006B00081917F01882309F4BAC1853239F493FD11
:1006C000859193FF81917F01853229F4B60190E0F5
:1006D0000E943705E7CF912C212C312CFFE1F31537
:1006E000D8F08B3279F038F4803279F08332A1F48B
:1006F000232D20611DC08D3261F0803369F4232DDC
:10070000216016C0832D8260382EE32DE4603E2EDA
:100710002AC0F32DF8601DC037FC2DC020ED280F36
:100720002A3040F08E32B9F436FC81C1232D20648A
:10073000322E19C036FE06C08AE0989E200D112484
:10074000922E11C0EAE02E9E200D1124222EF32DB0
:10075000F0623F2E08C08C3621F4832D8068382E3D
:1007600002C0883641F4F70193FD859193FF819192
:100770007F018111B3CF982F9F7D9554933028F43A
:100780000C5F1F4F9FE399830DC0833631F0833791
:1007900071F0833509F059C021C0F8018081898347
:1007A0000E5F1F4F88248394912C530113C028019E
:1007B000F2E04F0E511CF801A080B18036FE03C05C
:1007C000692D70E002C06FEF7FEFC5010E942C051C
:1007D0004C018201F32DFF773F2E16C0280122E045
:1007E000420E511CF801A080B18036FE03C0692D75
:1007F00070E002C06FEF7FEFC5010E9421054C0140
:10080000F32DF0683F2E820133FC1BC0822D90E057
:1008100088169906B0F4B60180E290E00E94370590
:100820002A94F4CFF50137FC859137FE81915F0161
:10083000B60190E00E94370521102A9421E0821A27
:1008400091088114910471F7E8C0843611F089365B
:1008500041F5F80137FE07C0608171818281938183
:100860000C5F1F4F08C060817181072E000C880B40
:10087000990B0E5F1F4FF32DFF763F2E97FF09C098
:1008800090958095709561957F4F8F4F9F4FF06841
:100890003F2E2AE030E0A3010E947305882E8618BF
:1008A00045C0853731F4232D2F7EB22E2AE030E06B
:1008B00025C0932D997FB92E8F36C1F018F4883555
:1008C00079F0B5C0803719F0883721F0B0C0E92F32
:1008D000E061BE2EB4FE0DC0FB2DF460BF2E09C03A
:1008E00034FE0AC0292F2660B22E06C028E030E070
:1008F00005C020E130E002C020E132E0F801B7FE9F
:1009000007C060817181828193810C5F1F4F06C097
:100910006081718180E090E00E5F1F4FA3010E9413
:100920007305882E8618FB2DFF773F2E36FE0DC0EF
:10093000232D2E7FA22E891458F434FE0BC032FCD6
:1009400009C0832D8E7EA82E05C0B82CA32C03C011
:10095000B82C01C0B92CA4FE0FC0FE01E80DF11D9A
:100960008081803321F49A2D997EA92E09C0A2FEA0
:1009700006C0B394B39404C08A2D867809F0B3946A
:10098000A3FC11C0A0FE06C0B21488F4280C922C5F
:100990009B180EC0B21460F4B60180E290E00E9491
:1009A0003705B394F7CFB21418F42B1802C0982C63
:1009B000212CA4FE10C0B60180E390E00E94370510
:1009C000A2FE17C0A1FC03C088E790E002C088E542
:1009D00090E0B6010CC08A2D867859F0A1FE02C0C5
:1009E0008BE201C080E2A7FC8DE2B60190E00E949C
:1009F0003705891438F4B60180E390E00E9437058A
:100A00009A94F7CF8A94F301E80DF11D8081B60125
:100A100090E00E9437058110F5CF222009F442CEE4
:100A2000B60180E290E00E9437052A94F6CFF601E5
:100A30008681978102C08FEF9FEF2B96E2E10C94A5
:100A4000ED05FC010590615070400110D8F78095CC
:100A500090958E0F9F1F0895FC016150704001908A
:100A60000110D8F7809590958E0F9F1F08950F93D2
:100A70001F93CF93DF93FB01238121FD03C08FEFF1
:100A80009FEF2CC022FF16C04681578124813581FB
:100A90004217530744F4A081B1819D012F5F3F4F5E
:100AA000318320838C93268137812F5F3F4F37839B
:100AB000268314C08B01EC01FB010084F185E02D3D
:100AC0000995892BE1F6D80116968D919C9117977F
:100AD000019617969C938E931697CE01DF91CF9136
:100AE0001F910F910895FA01AA27283051F1203162
:100AF00081F1E8946F936E7F6E5F7F4F8F4F9F4FB2
:100B0000AF4FB1E03ED0B4E03CD0670F781F891FF3
:100B10009A1FA11D680F791F8A1F911DA11D6A0FC1
:100B2000711D811D911DA11D20D009F468943F9174
:100B30002AE0269F11243019305D3193DEF6CF0173
:100B40000895462F4770405D4193B3E00FD0C9F739
:100B5000F6CF462F4F70405D4A3318F0495D31FDA6
:100B60004052419302D0A9F7EACFB4E0A6959795F9
:100B7000879577956795BA95C9F7009761057105CF
:100B800008959B01AC010A2E069457954795379519
:100B90002795BA95C9F7620F731F841F951FA01D73
:100BA00008952F923F924F925F926F927F928F9211
:100BB0009F92AF92BF92CF92DF92EF92FF920F93EC
:100BC0001F93CF93DF93CDB7DEB7CA1BDB0B0FB6F6
:100BD000F894DEBF0FBECDBF09942A8839884888B3
:100BE0005F846E847D848C849B84AA84B984C88449
:100BF000DF80EE80FD800C811B81AA81B981CE0F40
:100C0000D11D0FB6F894DEBF0FBECDBFED01089524
:040C1000F894FFCF86
:100C14005374617274696E67205465737400486517
:100C24006C6C6F2066726F6D2047534D21002B3919
:100C340034373134363336373238004E6F2052650C
:100C440073700041542B434D47463D310047534D8B
:100C540020496E69742E2E2E004154004154204FB9
:100C64004B004154204661696C00415445300041B9
:100C7400542B434D47533D2225732200534D53209B
:060C84004661696C0000EE
:00000001FF
