:100000000C9434000C9451000C9451000C94510049
:100010000C9451000C9451000C9451000C9451001C
:100020000C9451000C9451000C9451000C9451000C
:100030000C9451000C9451000C9451000C945100FC
:100040000C9451000C9451000C9451000C945100EC
:100050000C9451000C9451000C9451000C945100DC
:100060000C9451000C94510011241FBECFEFD8E026
:10007000DEBFCDBF11E0A0E0B1E0E4E4F0E102C0FA
:1000800005900D92AC3BB107D9F721E0ACEBB1E0A4
:1000900001C01D92A23CB207E1F70E9447020C94F6
:1000A00020080C9400008AB184648AB9539A5A9843
:1000B0005E9808955E9A8AE08A95F1F700C00895E7
:1000C0005E988AE08A95F1F700C0089598E080FF75
:1000D00002C05B9A01C05B985A9A22E02A95F1F718
:1000E00000C05A9822E02A95F1F700C086959150F9
:1000F00071F70895539898E080E086954B99806851
:100100005A9A22E02A95F1F700C05A9822E02A95DF
:10011000F1F700C0915089F7539A0895982F92955E
:100120009F708F702AE0929F800D112408956AE0DD
:100130000E94C704292F30E1839FC0011124822B24
:100140000895CF93DF93D82FC62F0E945A008D2F8A
:100150000E9466008C2F0E946600DF91CF910C9464
:100160006000CF93C82F0E945A008C2F81600E949C
:1001700066000E947A00C82F0E9460008C2FCF91E9
:1001800008951F93CF93DF93C82FD62F142F60E0CD
:100190008EE80E94A100812F0E949700682F80E8BE
:1001A0000E94A1008D2F0E949700682F82E80E9474
:1001B000A1008C2F0E949700682F84E80E94A10064
:1001C00060E88EE8DF91CF911F910C94A100EF922F
:1001D000FF920F931F93CF93DF93EC018B017A0172
:1001E00080E80E94B1000E948E00F701808382E8BF
:1001F0000E94B1000E948E00F801808384E80E9472
:10020000B1000E948E008883DF91CF911F910F91E2
:10021000FF90EF900895DC01FA012C9130E0062E5A
:1002200002C0359527950A94E2F7908120FD17C00A
:10023000911117C02FEF86E791E021508040904048
:10024000E1F700C000008C9190E002C09595879581
:100250006A95E2F780FD05C081E0808308959111E1
:10026000108280E008952C9A08952C980895229A7F
:100270008FE39CE9909387008093860082E28093CD
:1002800080008AE1809381000895282F30E0ACE659
:10029000B7E00E941D0524EB30E040E050E00E94F2
:1002A000FB04DA01C9018C509E4FAF4FBF4F9093B2
:1002B0008B0080938A000895239A83E88093B0008E
:1002C00085E08093B1008EE58093B3000895282FD8
:1002D00030E0A0EDB7E00E941D0524EB30E040E0E7
:1002E00050E00E94FB04DA01C9018C509E4FAF4FD1
:1002F000BF4F24E0B695A795979587952A95D1F796
:100300008093B3000895209A21980895289825E0B5
:100310002A95F1F70000289A8AE18A95F1F700C042
:100320002898199BFECF80E090E0199B06C00196AB
:1003300022E02A95F1F700C0F8CF6AE370E00E944E
:10034000D304CB01089598B1907F8F70892B88B921
:100350005D9A82E08A95F1F700C05D9887EC90E0A5
:100360000197F1F700C000000895CF93C82F6623CE
:1003700011F05C9A01C05C988C2F82958F700E945E
:10038000A3018C2F8F70CF910C94A30187B18F6044
:1003900087B98AB180638AB98FE39CE90197F1F745
:1003A00000C0000083E00E94A3018FE097E2019764
:1003B000F1F700C0000083E00E94A30187EC90E009
:1003C0000197F1F700C0000083E00E94A30182E0E2
:1003D0000E94A30160E088E20E94B50160E08CE029
:1003E0000E94B50160E086E00E94B50160E081E016
:1003F0000E94B5018FE99FE00197F1F700C000006E
:10040000089560E081E00E94B5018FE99FE00197C7
:10041000F1F700C000000895962F882311F080ECBA
:1004200001C080E860E0890F0C94B501CF93DF93A1
:10043000EC018991882321F061E00E94B501F9CF98
:10044000DF91CF910895CF93DF93CDB7DEB760975B
:100450000FB6F894DEBF0FBECDBF9E012B5E3F4F9F
:10046000F901419151919F0160E170E0CE01019647
:100470000E942C05CE0101960E94160260960FB6CE
:10048000F894DEBF0FBECDBFDF91CF910895CF931B
:10049000DF9300D01F92CDB7DEB70E94C6010E9445
:1004A00001020E9453000E9437010E945C010E94D9
:1004B000830184EF91E090938B0080938A008FE119
:1004C0008093B30025982D9A87B18F7C87B988B126
:1004D000806388B957985F9A249A40E060E08CE086
:1004E0000E94C1000CE310E028E1E22EF12C3AE07A
:1004F000232E31E0332E4BE4442E41E0542E58E3BA
:10050000652E51E0752E60E2A62E61E0B62E7DE8E4
:10051000872E71E0972EAE014F5F5F4FBE016E5F79
:100520007F4FCE0103960E94E7004FEB51E065E05C
:1005300083E290E00E940B01882361F08091C10169
:100540008F5F833018F48093C10102C01092C10103
:100550001092C0014EEB51E064E086E290E00E9410
:100560000B019091C101882349F0992309F449C0F6
:100570008091C00121E082278093C001913009F071
:1005800040C04DEB51E065E086E290E00E940B0137
:100590008823B9F08091C00181110AC080910301C4
:1005A00090E00196B7010E94E7048093030109C01F
:1005B0008091020190E00196B8010E94E7048093C7
:1005C00002014CEB51E067E089E290E00E940B01F0
:1005D0008823B9F08091C00181110AC08091030184
:1005E00090E04796B7010E94E7048093030109C099
:1005F0008091020190E0CB96B8010E94E7048093BD
:1006000002018091C101823009F040C04DEB51E000
:1006100065E086E290E00E940B018823B9F08091AA
:10062000C00181110AC08091010190E00196B701DB
:100630000E94E7048093010109C08091000190E0CD
:100640000196B8010E94E704809300014CEB51E051
:1006500067E089E290E00E940B018823B9F0809165
:10066000C00181110AC08091010190E04796B70155
:100670000E94E7048093010109C08091000190E08D
:10068000CB96B8010E94E7048093000160E080E00F
:100690000E940C0289811F928F938A811F928F93EF
:1006A0008B811F928F933F922F920E94230260E0D2
:1006B00081E00E940C028091C1010FB6F894DEBF68
:1006C0000FBECDBF811115C0809100011F928F9385
:1006D000809101011F928F93809102011F928F934D
:1006E000809103011F928F93BF92AF920E942302C9
:1006F00031C08130B1F43091020120910301809129
:10070000C001882319F087E091E002C084E091E005
:100710001F923F931F922F939F938F937F926F927D
:1007200017C08230E1F430910001209101018091E5
:10073000C001882319F087E091E002C084E091E0D5
:100740001F923F931F922F939F938F935F924F928D
:100750000E9423020FB6F894DEBF0FBECDBF80917A
:10076000C101811105C18B819091030189139DC045
:100770002A8190910201291398C09981911195C005
:100780000E94330160E082E00E940C028EE591E05D
:100790009F938F930E9423020F900F9098E0C92E91
:1007A00097E0D92E0E94860103970C97C0F58CE93B
:1007B0008093B3009FEF23ED30E391502040304011
:1007C000E1F700C000008FE18093B3008FEF93ED5D
:1007D00020E3815090402040E1F700C0000080E617
:1007E00099E090938B0080938A003FEF83ED90E334
:1007F000315080409040E1F700C0000084EF91E06C
:1008000090938B0080938A0060E082E00E940C024B
:100810008EE691E09F938F930E942302B3C02FEF47
:1008200030E782E0215030408040E1F700C0000016
:1008300091E0C91AD10809F0B5CF60E082E00E94CA
:100840000C028CEA91E09F938F930E9423028CE923
:100850008093B3008FEF93ED20E3815090402040D0
:10086000E1F700C000008FE18093B3003FEF83ED1C
:1008700090E3315080409040E1F700C0000080E6F6
:1008800099E090938B0080938A002FEF33ED80E303
:10089000215030408040E1F700C0000084EF91E03B
:1008A00090938B0080938A006DC090910101891311
:1008B0005FC09A818091000198135AC0898181118B
:1008C00057C00E94330160E082E00E940C029F92B8
:1008D0008F920E9423020F900F9088E0C82E87E02D
:1008E000D82E0E94860103970C9778F460E082E08E
:1008F0000E940C028EE691E09F938F930E94230248
:100900000F900F90DD24D3940EC02FEF30E782E0DC
:10091000215030408040E1F700C0000091E0C91A4A
:10092000D108F9F6D12C0E943501D1100CC060E03D
:1009300082E00E940C028DE991E09F938F930E94C8
:1009400023020F900F902FEF33ED80E321503040C2
:100950008040E1F700C0000060E082E00E940C02ED
:100960008CE791E09F938F930E9423020F900F904A
:100970009FEF20E732E0915020403040E1F700C087
:100980000000C9CD0F900F900E943501E5CF991B53
:1009900079E004C0991F961708F0961B881F7A9576
:1009A000C9F780950895AA1BBB1B51E107C0AA1F78
:1009B000BB1FA617B70710F0A61BB70B881F991F00
:1009C0005A95A9F780959095BC01CD01089597FBA4
:1009D000072E16F4009407D077FD09D00E94D304A7
:1009E00007FC05D03EF4909581959F4F0895709532
:1009F00061957F4F0895A1E21A2EAA1BBB1BFD0132
:100A00000DC0AA1FBB1FEE1FFF1FA217B307E407ED
:100A1000F50720F0A21BB30BE40BF50B661F771F45
:100A2000881F991F1A9469F7609570958095909525
:100A30009B01AC01BD01CF010895A29FB001B39FFE
:100A4000C001A39F700D811D1124911DB29F700DD7
:100A5000811D1124911D0895AEE0B0E0E2E3F5E0C0
:100A60000C94F7078C01FA0186E08C831A830983C2
:100A700077FF02C060E070E8CB0101979E838D8311
:100A8000A901BF01CE0101960E9458054D815E81EA
:100A900057FD0AC02F813885421753070CF49A017D
:100AA000F801E20FF31F10822E96E4E00C94130875
:100AB000ABE0B0E0EEE5F5E00C94E9076C017B01FA
:100AC0008A01FC0117821682838181FFCCC1CE018D
:100AD00001963C01F6019381F70193FD859193FF07
:100AE00081917F01882309F4BAC1853239F493FDDD
:100AF000859193FF81917F01853229F4B60190E0C1
:100B00000E944F07E7CF912C212C312CFFE1F315E8
:100B1000D8F08B3279F038F4803279F08332A1F456
:100B2000232D20611DC08D3261F0803369F4232DA7
:100B3000216016C0832D8260382EE32DE4603E2EA6
:100B40002AC0F32DF8601DC037FC2DC020ED280F02
:100B50002A3040F08E32B9F436FC81C1232D206456
:100B6000322E19C036FE06C08AE0989E200D112450
:100B7000922E11C0EAE02E9E200D1124222EF32D7C
:100B8000F0623F2E08C08C3621F4832D8068382E09
:100B900002C0883641F4F70193FD859193FF81915E
:100BA0007F018111B3CF982F9F7D9554933028F406
:100BB0000C5F1F4F9FE399830DC0833631F083375D
:100BC00071F0833509F059C021C0F8018081898313
:100BD0000E5F1F4F88248394912C530113C028016A
:100BE000F2E04F0E511CF801A080B18036FE03C028
:100BF000692D70E002C06FEF7FEFC5010E944407CE
:100C00004C018201F32DFF773F2E16C0280122E010
:100C1000420E511CF801A080B18036FE03C0692D40
:100C200070E002C06FEF7FEFC5010E9439074C01F1
:100C3000F32DF0683F2E820133FC1BC0822D90E023
:100C400088169906B0F4B60180E290E00E944F0742
:100C50002A94F4CFF50137FC859137FE81915F012D
:100C6000B60190E00E944F0721102A9421E0821AD9
:100C700091088114910471F7E8C0843611F0893627
:100C800041F5F80137FE07C060817181828193814F
:100C90000C5F1F4F08C060817181072E000C880B0C
:100CA000990B0E5F1F4FF32DFF763F2E97FF09C064
:100CB00090958095709561957F4F8F4F9F4FF0680D
:100CC0003F2E2AE030E0A3010E948B07882E861871
:100CD00045C0853731F4232D2F7EB22E2AE030E037
:100CE00025C0932D997FB92E8F36C1F018F4883521
:100CF00079F0B5C0803719F0883721F0B0C0E92FFE
:100D0000E061BE2EB4FE0DC0FB2DF460BF2E09C005
:100D100034FE0AC0292F2660B22E06C028E030E03B
:100D200005C020E130E002C020E132E0F801B7FE6A
:100D300007C060817181828193810C5F1F4F06C063
:100D40006081718180E090E00E5F1F4FA3010E94DF
:100D50008B07882E8618FB2DFF773F2E36FE0DC0A1
:100D6000232D2E7FA22E891458F434FE0BC032FCA2
:100D700009C0832D8E7EA82E05C0B82CA32C03C0DD
:100D8000B82C01C0B92CA4FE0FC0FE01E80DF11D66
:100D90008081803321F49A2D997EA92E09C0A2FE6C
:100DA00006C0B394B39404C08A2D867809F0B39436
:100DB000A3FC11C0A0FE06C0B21488F4280C922C2B
:100DC0009B180EC0B21460F4B60180E290E00E945D
:100DD0004F07B394F7CFB21418F42B1802C0982C15
:100DE000212CA4FE10C0B60180E390E00E944F07C2
:100DF000A2FE17C0A1FC03C088E790E002C088E50E
:100E000090E0B6010CC08A2D867859F0A1FE02C090
:100E10008BE201C080E2A7FC8DE2B60190E00E9467
:100E20004F07891438F4B60180E390E00E944F0721
:100E30009A94F7CF8A94F301E80DF11D8081B601F1
:100E400090E00E944F078110F5CF222009F442CE96
:100E5000B60180E290E00E944F072A94F6CFF60197
:100E60008681978102C08FEF9FEF2B96E2E10C9471
:100E70000508FC010590615070400110D8F780957D
:100E800090958E0F9F1F0895FC0161507040019056
:100E90000110D8F7809590958E0F9F1F08950F939E
:100EA0001F93CF93DF93FB01238121FD03C08FEFBD
:100EB0009FEF2CC022FF16C04681578124813581C7
:100EC0004217530744F4A081B1819D012F5F3F4F2A
:100ED000318320838C93268137812F5F3F4F378367
:100EE000268314C08B01EC01FB010084F185E02D09
:100EF0000995892BE1F6D80116968D919C9117974B
:100F0000019617969C938E931697CE01DF91CF9101
:100F10001F910F910895FA01AA27283051F120312D
:100F200081F1E8946F936E7F6E5F7F4F8F4F9F4F7D
:100F3000AF4FB1E03ED0B4E03CD0670F781F891FBF
:100F40009A1FA11D680F791F8A1F911DA11D6A0F8D
:100F5000711D811D911DA11D20D009F468943F9140
:100F60002AE0269F11243019305D3193DEF6CF013F
:100F70000895462F4770405D4193B3E00FD0C9F705
:100F8000F6CF462F4F70405D4A3318F0495D31FD72
:100F90004052419302D0A9F7EACFB4E0A6959795C5
:100FA000879577956795BA95C9F70097610571059B
:100FB00008959B01AC010A2E0694579547953795E5
:100FC0002795BA95C9F7620F731F841F951FA01D3F
:100FD00008952F923F924F925F926F927F928F92DD
:100FE0009F92AF92BF92CF92DF92EF92FF920F93B8
:100FF0001F93CF93DF93CDB7DEB7CA1BDB0B0FB6C2
:10100000F894DEBF0FBECDBF09942A88398848887E
:101010005F846E847D848C849B84AA84B984C88414
:10102000DF80EE80FD800C811B81AA81B981CE0F0B
:10103000D11D0FB6F894DEBF0FBECDBFED010895F0
:04104000F894FFCF52
:10104400050C010C4872004D6E0054696D65202535
:101054003032643A253032643A253032642020003C
:101064004120253032643A25303264204220253034
:1010740032643A253032640053657420412025736C
:1010840020253032643A253032640053657420429E
:1010940020257320253032643A2530326400416CB7
:1010A40061726D313A2057616974696E67004861F5
:1010B4006E64204465746563746564002020202098
:1010C40020202020202020202020202000416C618E
:1010D400726D323A2057616974696E67004E6F20F1
:1010E40048616E64202D3E204F6666004E6F204896
:0C10F400616E6420416374696F6E00003F
:00000001FF
