:100000000C9434000C9451000C9451000C94510049
:100010000C9451000C9451000C9451000C9451001C
:100020000C9451000C9451000C9451000C9451000C
:100030000C9451000C9451000C9451000C945100FC
:100040000C9451000C9451000C9451000C945100EC
:100050000C9451000C9451000C9451000C945100DC
:100060000C9451000C94510011241FBECFEFD8E026
:10007000DEBFCDBF11E0A0E0B1E0E8E1FDE002C0ED
:1000800005900D92AE35B107D9F721E0AEE5B1E0AC
:1000900001C01D92A536B207E1F70E94DB010C9466
:1000A0008A060C9400008AB184648AB9539A5A98DB
:1000B0005E9808955E9A8AE08A95F1F700C00895E7
:1000C0005E988AE08A95F1F700C0089598E080FF75
:1000D00002C05B9A01C05B985A9A22E02A95F1F718
:1000E00000C05A9822E02A95F1F700C086959150F9
:1000F00071F70895539898E080E086954B99806851
:100100005A9A22E02A95F1F700C05A9822E02A95DF
:10011000F1F700C0915089F7539A0895982F92955E
:100120009F708F702AE0929F800D112408956AE0DD
:100130000E946203292F30E1839FC0011124822B8A
:100140000895CF93DF93D82FC62F0E945A008D2F8A
:100150000E9466008C2F0E946600DF91CF910C9464
:100160006000CF93C82F0E945A008C2F81600E949C
:1001700066000E947A00C82F0E9460008C2FCF91E9
:1001800008951F93CF93DF93C82FD62F142F60E0CD
:100190008EE80E94A100812F0E949700682F80E8BE
:1001A0000E94A1008D2F0E949700682F82E80E9474
:1001B000A1008C2F0E949700682F84E80E94A10064
:1001C00060E88EE8DF91CF911F910C94A100EF922F
:1001D000FF920F931F93CF93DF93EC018B017A0172
:1001E00080E80E94B1000E948E00F701808382E8BF
:1001F0000E94B1000E948E00F801808384E80E9472
:10020000B1000E948E008883DF91CF911F910F91E2
:10021000FF90EF900895DC01FA012C9130E0062E5A
:1002200002C0359527950A94E2F7908120FD17C00A
:10023000911117C02FE788E391E021508040904052
:10024000E1F700C000008C9190E002C09595879581
:100250006A95E2F780FD05C081E0808308959111E1
:10026000108280E008952C9A08952C98089598B1F2
:10027000907F8F70892B88B95D9A82E08A95F1F71B
:1002800000C05D9887EC90E00197F1F700C0000096
:100290000895CF93C82F662311F05C9A01C05C9833
:1002A0008C2F82958F700E9437018C2F8F70CF9189
:1002B0000C94370187B18F6087B98AB180638AB99E
:1002C0008FE39CE90197F1F700C0000083E00E94F2
:1002D00037018FE097E20197F1F700C0000083E05B
:1002E0000E94370187EC90E00197F1F700C0000011
:1002F00083E00E94370182E00E94370160E088E2DB
:100300000E94490160E08CE00E94490160E086E0C3
:100310000E94490160E081E00E9449018FE99FE06D
:100320000197F1F700C00000089560E081E00E94AD
:1003300049018FE99FE00197F1F700C0000008959F
:10034000962F882311F080EC01C080E860E0890FCF
:100350000C944901CF93DF93EC018991882321F01C
:1003600061E00E944901F9CFDF91CF910895CF93C9
:10037000DF93CDB7DEB760970FB6F894DEBF0FBE40
:10038000CDBF9E012B5E3F4FF901419151919F01DD
:1003900060E170E0CE0101960E949603CE010196C5
:1003A0000E94AA0160960FB6F894DEBF0FBECDBFC3
:1003B000DF91CF910895CF93DF9300D01F92CDB7F7
:1003C000DEB70E945A010E9495010E9453002598B1
:1003D0002D9A87B18F7C87B988B1806388B9579887
:1003E0005F9A249A40E060E08CE00E94C1000CE338
:1003F00010E088E1E82EF12C5524539499E0692E01
:1004000091E0792E2AE4C22E21E0D22E37E3A32EEA
:1004100031E0B32E4FE1842E41E0942EAE014F5FC8
:100420005F4FBE016E5F7F4FCE0103960E94E700D3
:1004300041E651E065E083E290E00E940B018823F1
:1004400061F0809163018F5F833018F480936301C2
:1004500002C0109263011092620140E651E064E034
:1004600086E290E00E940B0190916301882341F0A5
:10047000992309F448C08091620185258093620127
:10048000913009F040C04FE551E065E086E290E030
:100490000E940B018823B9F08091620181110AC08A
:1004A0008091020190E00196B7010E946E03809353
:1004B000020109C08091640190E00196B8010E9498
:1004C0006E03809364014EE551E067E089E290E0BD
:1004D0000E940B018823B9F08091620181110AC04A
:1004E0008091020190E04796B7010E946E038093CD
:1004F000020109C08091640190E0CB96B8010E948E
:100500006E038093640180916301823009F040C0E2
:100510004FE551E065E086E290E00E940B01882300
:10052000B9F08091620181110AC08091010190E0CF
:100530000196B7010E946E038093010109C080916A
:10054000000190E00196B8010E946E0380930001C3
:100550004EE551E067E089E290E00E940B018823BC
:10056000B9F08091620181110AC08091010190E08F
:100570004796B7010E946E038093010109C08091E4
:10058000000190E0CB96B8010E946E0380930001B9
:1005900060E080E00E94A00189811F928F938A8190
:1005A0001F928F938B811F928F937F926F920E94E5
:1005B000B70160E081E00E94A001809163010FB665
:1005C000F894DEBF0FBECDBF811115C08091000130
:1005D0001F928F93809101011F928F9380916401EC
:1005E0001F928F93809102011F928F939F928F92FF
:1005F0000E94B70131C08130B1F430916401209183
:10060000020180916201882319F086E091E002C026
:1006100083E091E01F923F931F922F939F938F93BC
:10062000BF92AF9217C08230E1F430910001209167
:10063000010180916201882319F086E091E002C0F7
:1006400083E091E01F923F931F922F939F938F938C
:10065000DF92CF920E94B7010FB6F894DEBF0FBEB3
:10066000CDBF80916301811123C08B8190910201E4
:10067000891305C02A8190916401291749F090914E
:100680000101891315C09A8180910001981310C04F
:10069000898181110DC00E9433019FEF21E13AE76A
:1006A000915020403040E1F700C000000E94350129
:1006B0008FEF90E722E0815090402040E1F700C0AA
:1006C0000000ACCE991B79E004C0991F961708F082
:1006D000961B881F7A95C9F78095089597FB072E7A
:1006E00016F4009407D077FD09D00E94820307FC1E
:1006F00005D03EF4909581959F4F08957095619532
:100700007F4F0895AA1BBB1B51E107C0AA1FBB1F47
:10071000A617B70710F0A61BB70B881F991F5A958D
:10072000A9F780959095BC01CD010895AEE0B0E0A9
:10073000ECE9F3E00C9461068C01FA0186E08C830D
:100740001A83098377FF02C060E070E8CB0101974C
:100750009E838D83A901BF01CE0101960E94C20331
:100760004D815E8157FD0AC02F813885421753079E
:100770000CF49A01F801E20FF31F10822E96E4E0C8
:100780000C947D06ABE0B0E0E8ECF3E00C9453068B
:100790006C017B018A01FC0117821682838181FF33
:1007A000CCC1CE0101963C01F6019381F70193FD86
:1007B000859193FF81917F01882309F4BAC1853225
:1007C00039F493FD859193FF81917F01853229F45E
:1007D000B60190E00E94B905E7CF912C212C312C75
:1007E000FFE1F315D8F08B3279F038F4803279F0EC
:1007F0008332A1F4232D20611DC08D3261F080333E
:1008000069F4232D216016C0832D8260382EE32DDC
:10081000E4603E2E2AC0F32DF8601DC037FC2DC0C9
:1008200020ED280F2A3040F08E32B9F436FC81C119
:10083000232D2064322E19C036FE06C08AE0989E11
:10084000200D1124922E11C0EAE02E9E200D1124BD
:10085000222EF32DF0623F2E08C08C3621F4832D1A
:100860008068382E02C0883641F4F70193FD8591E7
:1008700093FF81917F018111B3CF982F9F7D955474
:10088000933028F40C5F1F4F9FE399830DC083368C
:1008900031F0833771F0833509F059C021C0F80178
:1008A000808189830E5F1F4F88248394912C53018C
:1008B00013C02801F2E04F0E511CF801A080B18056
:1008C00036FE03C0692D70E002C06FEF7FEFC501F7
:1008D0000E94AE054C018201F32DFF773F2E16C01A
:1008E000280122E0420E511CF801A080B18036FEA2
:1008F00003C0692D70E002C06FEF7FEFC5010E9459
:10090000A3054C01F32DF0683F2E820133FC1BC080
:10091000822D90E088169906B0F4B60180E290E04E
:100920000E94B9052A94F4CFF50137FC859137FE72
:1009300081915F01B60190E00E94B90521102A94CF
:1009400021E0821A91088114910471F7E8C084367D
:1009500011F0893641F5F80137FE07C060817181D9
:10096000828193810C5F1F4F08C060817181072EC7
:10097000000C880B990B0E5F1F4FF32DFF763F2E57
:1009800097FF09C090958095709561957F4F8F4F27
:100990009F4FF0683F2E2AE030E0A3010E94F5054A
:1009A000882E861845C0853731F4232D2F7EB22E30
:1009B0002AE030E025C0932D997FB92E8F36C1F003
:1009C00018F4883579F0B5C0803719F0883721F0F0
:1009D000B0C0E92FE061BE2EB4FE0DC0FB2DF46067
:1009E000BF2E09C034FE0AC0292F2660B22E06C0D1
:1009F00028E030E005C020E130E002C020E132E034
:100A0000F801B7FE07C060817181828193810C5F1C
:100A10001F4F06C06081718180E090E00E5F1F4F24
:100A2000A3010E94F505882E8618FB2DFF773F2E27
:100A300036FE0DC0232D2E7FA22E891458F434FECD
:100A40000BC032FC09C0832D8E7EA82E05C0B82CA9
:100A5000A32C03C0B82C01C0B92CA4FE0FC0FE010A
:100A6000E80DF11D8081803321F49A2D997EA92E05
:100A700009C0A2FE06C0B394B39404C08A2D867840
:100A800009F0B394A3FC11C0A0FE06C0B21488F410
:100A9000280C922C9B180EC0B21460F4B60180E2B0
:100AA00090E00E94B905B394F7CFB21418F42B1854
:100AB00002C0982C212CA4FE10C0B60180E390E067
:100AC0000E94B905A2FE17C0A1FC03C088E790E010
:100AD00002C088E590E0B6010CC08A2D867859F0F6
:100AE000A1FE02C08BE201C080E2A7FC8DE2B6014C
:100AF00090E00E94B905891438F4B60180E390E0D3
:100B00000E94B9059A94F7CF8A94F301E80DF11D7C
:100B10008081B60190E00E94B9058110F5CF2220B6
:100B200009F442CEB60180E290E00E94B9052A9411
:100B3000F6CFF6018681978102C08FEF9FEF2B964B
:100B4000E2E10C946F06FC010590615070400110C9
:100B5000D8F7809590958E0F9F1F0895FC016150E6
:100B6000704001900110D8F7809590958E0F9F1FCF
:100B700008950F931F93CF93DF93FB01238121FDF2
:100B800003C08FEF9FEF2CC022FF16C04681578114
:100B9000248135814217530744F4A081B1819D011E
:100BA0002F5F3F4F318320838C93268137812F5FC6
:100BB0003F4F3783268314C08B01EC01FB01008477
:100BC000F185E02D0995892BE1F6D80116968D91D6
:100BD0009C911797019617969C938E931697CE012A
:100BE000DF91CF911F910F910895FA01AA27283024
:100BF00051F1203181F1E8946F936E7F6E5F7F4FEA
:100C00008F4F9F4FAF4FB1E03ED0B4E03CD0670F65
:100C1000781F891F9A1FA11D680F791F8A1F911DB8
:100C2000A11D6A0F711D811D911DA11D20D009F408
:100C300068943F912AE0269F11243019305D31934A
:100C4000DEF6CF010895462F4770405D4193B3E033
:100C50000FD0C9F7F6CF462F4F70405D4A3318F0DA
:100C6000495D31FD4052419302D0A9F7EACFB4E08B
:100C7000A6959795879577956795BA95C9F7009743
:100C80006105710508959B01AC010A2E06945795E4
:100C9000479537952795BA95C9F7620F731F841F3B
:100CA000951FA01D08952F923F924F925F926F92D1
:100CB0007F928F929F92AF92BF92CF92DF92EF92EC
:100CC000FF920F931F93CF93DF93CDB7DEB7CA1B6D
:100CD000DB0B0FB6F894DEBF0FBECDBF09942A8898
:100CE000398848885F846E847D848C849B84AA8440
:100CF000B984C884DF80EE80FD800C811B81AA81CD
:100D0000B981CE0FD11D0FB6F894DEBF0FBECDBF97
:080D1000ED010895F894FFCFF6
:100D18001E0C0C4872004D6E0054696D652025301C
:100D280032643A253032643A25303264202000415A
:100D380020253032643A2530326420422025303272
:100D4800643A2530326400536574204120257320AD
:100D5800253032643A2530326400536574204220CD
:0E0D6800257320253032643A253032640000B5
:00000001FF
